:020000040800F2
:1000000000500020A17400083D06000841060008C9
:1000100045060008490600084D06000800000000DB
:100020000000000000000000000000005106000871
:10003000550600080000000059060008F174000889
:10004000F1740008F1740008F1740008F1740008FC
:10005000F1740008F1740008F1740008F1740008EC
:10006000F1740008F1740008F1740008F1740008DC
:10007000F1740008F1740008F1740008F1740008CC
:10008000F1740008F1740008F17400080000000029
:10009000000000000000000000000000A1060008B1
:1000A000F1740008F1740008F1740008F17400089C
:1000B000F1740008F1740008F1740008F17400088C
:1000C000F1740008F1740008F1740008F17400087C
:1000D000F1740008F17400085D060008F17400086E
:1000E000F1740008F1740008F174000800000000C9
:1000F0000000000000000000000000000000000000
:1001000000000000000000000000000000000000EF
:100110000000000000000000F1740008F174000805
:1001200000000000000000000000000000000000CF
:1001300000000000000000000000000000000000BF
:1001400000000000000000000000000000000000AF
:10015000000000000000000000000000000000009F
:10016000000000000000000000000000000000008F
:10017000000000000000000000000000000000007F
:10018000000000000000000000000000000000006F
:10019000000000000000000000000000000000005F
:1001A000000000000000000000000000000000004F
:1001B000000000000000000000000000000000003F
:1001C0000000000000000000000000005FF808F1DF
:1001D00008B540F6F800074BC2F200001B1A062BC8
:1001E00000D808BD40F20003C0F20003002BF8D095
:1001F0009847F6E7FB08002008B540F6F80040F6FF
:10020000F803C2F20003C2F200001B1A9B1003EBBA
:10021000D373591000D108BD40F20002C0F20002B1
:10022000002AF8D09047F6E710B540F6F804C2F27D
:100230000004237873B9FFF7CBFF40F20003C0F24C
:1002400000032BB14DF2B030C0F60000AFF30080D8
:100250000123237010BD00BF08B540F20003C0F2B7
:1002600000034BB14DF2B03040F6FC01C0F6000087
:10027000C2F20001AFF3008040F6F400C2F20000C9
:1002800003682BB140F20003C0F2000303B19847AA
:10029000BDE80840B0E700BF134B002B08BF114B6F
:1002A0009D46A3F5803A00218B460F461148124A1D
:1002B000121A07F083F90D4B002B00D098470C4B16
:1002C000002B00D098470020002104000D000B48AF
:1002D00007F010F907F044F92000290007F094F81E
:1002E00007F014F900000800000000000000000002
:1002F00000000000F8080020C80C00202D75000840
:100300004FF48053C4F20203196810B441F00101A4
:10031000196059680022CFF6FF020A405A601A6835
:10032000002122F0847222F480321A601A6883B0AD
:1003300022F480221A605C684FF41F0024F4FE044B
:100340005C6098600091019119681A4641F480310F
:10035000196003E0009BB3F5A06F09D0136803F4A4
:1003600000330193009B01330093019B002BF1D0DC
:100370004FF48053C4F202031B6813F4003318BF18
:1003800001230193019B012B0AD04FF46D43CEF260
:1003900000034FF000629A6003B05DF8044B7047B1
:1003A0004FF40052C4F2020211684FF4805341F03E
:1003B000100111601168C4F2020321F00301116001
:1003C0001068194640F0020010605A685A605A6876
:1003D0005A605A6842F480625A605A6822F47C1269
:1003E0005A605A6842F4E8125A601A6842F0807201
:1003F0001A600A684FF480539201C4F20203F8D5E0
:1004000059681A4621F003015960596841F0020108
:100410005960536803F00C03082BFAD1B5E700BF0D
:100420004FF48053C4F202035A6802F00C02082A07
:100430001CBF4FF49052C0F27A0210D15A6859682A
:10044000C2F38342C80302F1020217D55B68990325
:1004500014D44FF49053C0F27A0303FB02F24FF42A
:100460008053C4F20203596840F20403C2F200034D
:10047000C1F30311595CCA401A6170474FF410630D
:10048000C0F23D0303FB02F2E9E700BF4FF0FF308B
:10049000704700BF08B507F033F80C2303604FF036
:1004A000FF3008BD08B507F02BF80B2303604FF0B1
:1004B000FF3008BD4FF400534B600020704700BF71
:1004C00001207047022808B501D8012008BD07F0B7
:1004D00017F809230360002008BD00BF08B507F026
:1004E0000FF8162303604FF0FF3008BD08B507F082
:1004F00007F81F2303604FF0FF3008BD002070474E
:1005000070B5A0B9002A11DD4FF46055C4F20105A1
:100510008E182C884FF46053A006C4F20103F8D55E
:100520009B8801F8013BB142F3D1104670BD06F043
:10053000E7FF092303604FF0FF3070BD4FF4005315
:100540004B600020704700BF4FF0FF30704700BF86
:1005500008B506F0D5FF022303604FF0FF3008BD59
:1005600008B506F0CDFF0A2303604FF0FF3008BD49
:10057000012870B51ED0022815D1002AC2BF4FF441
:100580006055C4F201058E180BDD2C884FF46053C2
:100590006406C4F20103F8D511F8014BB1429C8006
:1005A000F3D1104670BD06F0ABFF092303604FF096
:1005B000FF3070BD002AF4DD4FF46055C4F2010530
:1005C0008E182C884FF460536006C4F20103F8D5EE
:1005D00011F8014BB1429C80F3D1104670BD00BFB1
:1005E0004DF2D43108B5C0F6000101200422FFF716
:1005F000BFFFFEE708B540F61413C2F200031A6805
:10060000B2B1EFF308811044884202D81860104656
:1006100008BD4DF2DC31C0F6000119220220FFF7BF
:10062000A7FF06F06DFF0C2303604FF0FF3008BDFD
:1006300040F6C842C2F200021A60E2E7704700BF0B
:10064000FEE700BFFEE700BFFEE700BFFEE700BF1A
:10065000704700BF704700BF704700BF4FF488402D
:1006600008B5C4F2000040F2255105F0E3FA60B18C
:100670004FF48840C4F2000005F05EFAC1B240F6C3
:10068000D820C2F2000000F0A5FEBDE808404FF4FB
:100690008840C4F2000040F2255105F0FBBA00BFCB
:1006A00008B54FF4007002F043FA68BB4FF4807055
:1006B00002F03EFAE8B9802002F03AFA78B9402018
:1006C00002F036FA00B908BD40F61C13C2F200036E
:1006D0000122DA704020BDE8084002F039BA40F645
:1006E0001C13C2F20003012280209A7002F030FA3B
:1006F000E5E740F61C13C2F2000301224FF48070BC
:100700005A7002F025FAD6E740F61C13C2F2000335
:1007100001224FF400701A7002F01AFAC6E700BF07
:100720002DE9F04F40F6881240F6841483B0C2F2EF
:100730000004002140F61C1540F6942640F63027B0
:1007400040F6D828C2F200022160C2F20005C2F2CF
:100750000006C2F20007C2F20008019204E021681C
:1007600001310329216040DC6B5C002BF7D04DF296
:100770000440C0F6000006F07BFF236803EB830211
:1007800003EB4202B118887A40B3B25C012A68D008
:100790002ED3072A22D198F8F1004FF0000B002841
:1007A0007AD040F6D82340F6F811C2F20003C2F224
:1007B000000108EB400A93F8F22093F8F3C002F12D
:1007C0001009023301EB490901EB42025345A9F834
:1007D00006B0A2F81CC0EED1411C01E0591C18461D
:1007E000002303292B542160BEDD03B0BDE8F08F48
:1007F0004B78019A03EB430302EB8303303393E816
:10080000070000F0F7FC40F68412C2F20002136801
:1008100040F6D82003EB830203EB4203334493F802
:1008200001C040F6681140F63022C2F200014FF0DC
:10083000010E0223C2F20000C2F2000287F801C0DA
:1008400087F800E000F0A2FD4DF20C40C0F6000079
:1008500006F058FF40F68413C2F200031868411CEA
:10086000BEE791F801C040F6D82040F630220231B0
:10087000C2F20000C2F200024FF0000E022387F81D
:1008800001C087F800E000F081FD40F68412C2F25A
:1008900000021068411CA3E70121A1E7F8B540F66A
:1008A000D824C2F2000494F8AB5105B1F8BD20463B
:1008B00000F0B8FC23788B2B0CD0902B06D194F849
:1008C000F030042B5AD0052B37D073B1012384F8B4
:1008D000AB31F8BD94F8E930002BF7D14DF214405C
:1008E000C0F6000006F00EFFF0E794F8F13040F695
:1008F00030254DF23840C2F2000501221946C0F6FB
:1009000000002A706B7006F0B3FE94F8F13040F6E8
:100910008812C2F2000203EB430302EB830330337D
:1009200093E8070000F066FC2A46A87004F109016C
:100930002046032300F02AFDC8E794F8F22040F691
:10094000942302EB820102EB4102C2F2000394F80D
:10095000F16094F8F300991801278F729E54487043
:10096000631993F8F4204B190135082D9A70F7D1CB
:1009700040F68413C2F200031D60A7E74DF2204049
:1009800040F68416C0F60000C2F2000606F070FEC3
:100990003560631993F8F1304DF22C402544194627
:1009A000C0F600006B7206F063FE35680135072D56
:1009B0003560EEDD4DF23440C0F6000006F0A2FED8
:1009C00084E700BF82B04FF480630190C4F200035B
:1009D000998C184689B2828C019B92B2521A92B2BB
:1009E0009A42F8D902B0704782B001904FF080402F
:1009F000818C89B2828C019B92B2521A92B29A4235
:100A0000F8D902B0704700BFF0B540F21405C2F249
:100A100000052A684DF68363C4F21B33A3FB02135F
:100A20004FF480669B0C85B00024013B4FF6FF77A6
:100A3000C4F2000602200121ADF80430ADF80870C0
:100A4000ADF80A40ADF8064003F084FB304601A93A
:100A500004F026F93046012104F01EFC2A6848F211
:100A60001F53C5F2EB13A3FB021301205B09013BEB
:100A70000146ADF80430ADF80870ADF80A40ADF8A5
:100A8000064003F067FB01A94FF0804004F008F92D
:100A90002A6844F6D353C1F26203A3FB02134FF456
:100AA00000609B09013B40F2E73201A9C4F200005B
:100AB000ADF80430ADF80820ADF80A40ADF80640B6
:100AC00004F0EEF84FF08040012104F0E5FB05B0A2
:100AD000F0BD00BF30B54FF4017087B0012103F0C5
:100AE0002BFB4FF40060002420236946C4F2010070
:100AF000ADF800308DF8034002F01AFE4FF480404C
:100B000003F08AFA4FF410504FF46023C4F201004E
:100B1000012501A9039301948DF808408DF809403F
:100B200004948DF8145000F07DFE4FF41050C4F280
:100B30000100294600F0A6FE4FF41050C4F2010057
:100B400000F0BEFE4FF41050C4F2010000F0BEFEF3
:100B50000028F7D14FF41050C4F2010000F0BAFEA3
:100B60004FF41050C4F2010000F0BAFE0028F7D193
:100B70004FF41050C4F2010005210122072300F0B8
:100B8000D3FE07B030BD00BF30B5102085B00121C5
:100B900003F0D2FA4FF440604FF4707204236946B8
:100BA000C4F20100ADF800208DF8033002F0C0FD62
:100BB0004FF4C06000F090FD0120062102F098FE85
:100BC0000120072102F094FE0120082102F090FE8E
:100BD0000921012002F08CFE01240822002502A830
:100BE00040238DF80D2002938DF80C508DF80E40A7
:100BF00001F03EFF02A88023029301F039FF02A812
:100C00004FF48073029301F033FF02A84FF4007396
:100C1000029301F02DFF172301A88DF805508DF8E0
:100C200006408DF807408DF8043000F05FFD05B0F8
:100C300030BD00BFF0B54FF4165287B000240C232E
:100C4000052001214FF400650292ADF81230C4F284
:100C50000105ADF80C40ADF80E40ADF81040ADF810
:100C6000144003F069FA4FF48040012103F064FA64
:100C70001827284601A94FF4007203234FF4605649
:100C8000ADF804208DF80630C4F201068DF8077027
:100C900002F04EFD04224FF48063284601A98DF82E
:100CA0000720ADF8043040F2604502F041FD3046C7
:100CB00002A904F03DFEC2F200053046012104F015
:100CC000B9FE2B68214658680222234606F022FD11
:100CD0002B68214698680222234606F01BFD2B68EC
:100CE0002146D8680222234606F014FD07B0F0BD65
:100CF000F0B54FF4165287B000240C2305200121D3
:100D00004FF4006504270292ADF81230C4F20105D9
:100D1000ADF80C40ADF80E40ADF81040ADF8144001
:100D200003F00AFA4FF40030012103F013FA4FF4F4
:100D30008846182228460DEB070103238DF807206B
:100D4000C4F200068DF80630ADF8047002F0F0FC35
:100D5000082328460DEB0701ADF804308DF8077025
:100D600002F0E6FC02A9304604F0E2FD40F6C04382
:100D7000C2F200031846012526221A705C709D708D
:100D8000DD7000F0B3FC30462A4640F2255104F0F5
:100D90005FFE3046294604F04DFE07B0F0BD00BFAF
:100DA000F0B54FF4165287B000240C23092001211E
:100DB0004FF440650292ADF81230C4F20105ADF86F
:100DC0000C40ADF80E40ADF81040ADF8144003F003
:100DD000B3F94FF48020012103F0BCF9182728460D
:100DE00001A94FF4806203234FF49046ADF804202C
:100DF0008DF80630C4F200068DF8077002F098FCFA
:100E000004224FF40063284601A98DF80720ADF8AD
:100E1000043040F2604502F08BFC304602A904F039
:100E200087FDC2F200053046012104F003FE2B6865
:100E3000214658680222234606F06CFC2B682146A6
:100E400098680222234606F065FC2B682146D86884
:100E50000222234606F05EFC07B0F0BD0A783AB1E4
:100E600003885B06FCD5828011F8012F002AF7D198
:100E7000704700BF002A08DD0A4403885B06FCD5E2
:100E800011F8013B91428380F7D1704708B501F01A
:100E900087FE342001F0F4FE4FF47E40C0F60000DF
:100EA00001F03CFFBDE8084001F09ABE704700BF6A
:100EB000F0B5044683B004270025016003260846E8
:100EC000A5600DEB07011D46ADF804208DF80770F5
:100ED0008DF8066002F02CFC019A2561626003B077
:100EE000F0BD00BF84B038B59DF8244004AD85E85E
:100EF0000F0005A98DF8174002F01AFCBDE8384034
:100F000004B0704784B02DE9F04190B016AC84E88D
:100F10000F000446BDF85C5072B616AF01AE0FCF9D
:100F20000FC63B68102202A9204633608DF80B20C3
:100F300002F0FEFB04202561FFF744FD16AF4FF4DD
:100F4000F570656106AEFFF73DFD0FCF0FC64FF49C
:100F500080683B680422204607A9C4F20008336079
:100F60008DF81F2002F0E4FBB8F8247040F2F3166D
:100F7000BFB22046294602F045FCB8F824309BB2A7
:100F8000DB1BB342CCBF002000F001000028F0D1F1
:100F900016AF0BAE0FCF0FC63B68102220460CA930
:100FA00033608DF8332002F0C3FB25617820FFF712
:100FB00009FD62B610B0BDE8F04104B0704700BF53
:100FC00084B0F8B506AC84E80F000B9F044672B6F7
:100FD000BDF81C500826FB0765614FF03C004CBF74
:100FE00025616561FFF7EEFC013E4FEA6707256169
:100FF000F1D1256162B6BDE8F84004B0704700BF8A
:1010000084B02DE9F04F91B01AAC84E80F00064689
:10101000BDF86C7072B61AAD01AC0FCD0FC42B6861
:10102000304602A94FF0100B23608DF80BB002F090
:101030007FFB4FF008094FF000084FF0040A1A96A2
:10104000ADF86C701AAD06AC0FCD0FC42B6807A9B4
:101050007761376123608DF81FA002F069FB0F20D4
:10106000FFF7B0FCB3684FEA58081F4218BF48F0BA
:1010700080084FF064001AAD0BAC18BF1FFA88F857
:10108000FFF7A0FC0FCD0FC409F1FF392B683046E4
:101090000CA91FFA89F923608DF833B002F048FBE0
:1010A000B9F1000FCBD162B6404611B0BDE8F04FA8
:1010B00004B0704784B070B582B006AC84E80F000D
:1010C0000A9C06AD95E80F000094FFF71BFF0A9CF1
:1010D000552506AE96E80F008DE83000FFF770FF4B
:1010E0000A9D00242A5D0A9B0192009306AE0134FA
:1010F00096E80F00FFF764FF082CF3D106AC94E8E4
:101100000F000A9C44258DE83000FFF759FF02B01C
:10111000BDE8704004B07047F0B5056983B004467F
:101120000FC80095FFF7EEFE94E80F0025695526DD
:101130008DE86000FFF744FF0025266994E80F0062
:10114000775D01358DE8C000FFF73AFF082DF4D137
:1011500094E80F002569BE268DE86000FFF730FF98
:1011600094E80F0025690095FFF74AFF25690646B8
:1011700094E80F000095FFF743FF10F0F00F0DD13A
:1011800046EA002080B2FF2806D004F09FFE4FF010
:10119000765104F0F3FEE06003B0F0BDB0B2FF287A
:1011A000FAD004F093FE0021CBF6805104F0E6FE65
:1011B000E06003B0F0BD00BF70B5046982B00546C1
:1011C0000FC80094FFF79EFE95E80F002C693326A8
:1011D0008DE85000FFF7F4FE00242B694DF22C40FF
:1011E000195DC0F60000013406F042FA082CF4D173
:1011F00002B070BD84B004AB03E90700019B029A02
:10120000D9680A42D96819BF002021EA02020120E8
:101210000A43DA6004B0704784B08DE80F0004B070
:10122000704700BF90F8E32090F8E23030B452EA03
:10123000030525D0EC1C00220323C11891F8E1100E
:101240000133A3420A44F8D1D3B2C3F1FF030544EA
:1012500095F8E4209A421CBFFF23037001D030BCF4
:10126000704790F8E42003460270002293F8E510DE
:101270000132082A597403F10103F7D130BC7047D9
:10128000FF23E4E7002390F8E5200133082B4274A4
:1012900000F10100F7D1704730B4002332B1CD5CCA
:1012A000C4180133934284F82A50F8D180F8A92158
:1012B00030BC704710B40023CC5CC2180133082B3B
:1012C0005470F9D15DF8044B704700BF10B490F82A
:1012D000A9417CB1033403230022C118497E0133A4
:1012E000A3420A44F9D1D2B2C2F1FF00C0B25DF804
:1012F000044B7047FF20FAE730B490F8A95110234F
:101300000E350022EDB27E21827603774377417657
:1013100080F8A951C576431E052201335978013260
:101320000D2A9977F9D10022FF23FE2180F826307B
:1013300080F8271080F8282080F82920EC1C55B16F
:101340000323C118497E01339C420A44F9D1D3B228
:10135000C3F1FF03DBB22044437630BC704700BFCB
:1013600038B5054600240120FFF73EFB2B194FF44A
:101370008840597EC4F2000004F0D2FB95F8A931F0
:1013800001340333A342EEDA38BD00BFF8B5074697
:10139000002433B1165D3D1901349C4285F82A6062
:1013A000F8D187F8A9310023C85CFA180133082B5B
:1013B0005070F9D13846FFF79FFF97F8A9214FF4F5
:1013C000884007F119010432C4F20000BDE8F8407A
:1013D000FFF750BD90F8AB3170B41BB340F6201648
:1013E000C2F2000635887E2900EB050383F8E11080
:1013F00004BF012580F8E11013D0072D84BF00221F
:1014000003230CD9C41894F8E1400133DBB2224421
:101410009D42D2B2F6D8D243D2B2914204D0013525
:10142000ADB2358070BC7047002380F8AB31012528
:10143000F7E700BF034690F8250029B140F001000E
:1014400083F8250000F016B900F0FE0083F82500AF
:1014500000F010B990F825208900034622F03C02E4
:1014600001F00F00104383F8250000F003B900BF1E
:1014700010B5044690F8250040F0020084F82500DD
:1014800000F0F8F894F8250000F0FD0084F825003D
:10149000BDE8104000F0EEB838B515460446FFF739
:1014A000C9FF2820FFF78EFA94F82530A80823F00A
:1014B0003C0300F00C00184384F8250000F0DAF833
:1014C0002046FFF7D5FF94F82530A80023F03C0311
:1014D00000F00F00184384F8250000F0CBF82046F8
:1014E000FFF7C6FFBDE838402820FFF76BBA00BF02
:1014F00070B50446002084F8250000F0BBF8642095
:10150000FFF772FA94F825001F4D20F03C0040F0E0
:101510000C0084F8250000F0ADF80520FFF764FA10
:1015200094F825002E1D20F03C0040F00C0084F8BB
:10153000250000F09FF80520FFF756FA94F82500E3
:1015400020F03C0040F00C0084F8250000F092F8F8
:101550000520FFF749FA94F8250020F03C0040F000
:10156000080084F8250000F085F80520FFF73CFA14
:1015700015F8012F20460021FFF78EFFB542F7D165
:10158000012384F8243070BDCFD3000841F0080255
:101590000021FFF781BF00BF41F010020021FFF7DB
:1015A0007BBF00BF38B5012200214DF24C440546F7
:1015B000C0F60004FFF770FF202228461021FFF735
:1015C0006BFF14F8012F002AF7D138BD0021022249
:1015D000FFF762BF013A032A03D8DFE802F00213E3
:1015E0000E18012380F82430002201390A4462F0E9
:1015F0007F02D2B20021FFF74FBF032380F82430CF
:101600001422F2E7022380F824304022EDE704237D
:1016100080F824305422E8E770B50A460E464DF2B1
:10162000444401210546C0F60004FFF7D3FF202201
:1016300028461021FFF730FF14F8012F002AF7D1B8
:10164000284632460121BDE87040FFF7C3BF00BF06
:101650000A461021FFF720BF38B50A78054642B187
:101660000C4628461021FFF717FF14F8012F002A17
:10167000F7D138BDF8B54FF40064C4F20104E36853
:10168000074623F40063E3600725E3680A2043F478
:101690008053E360FFF796F917EA4503E3684FF0DC
:1016A0000A0014BF43F4806323F48063E360FFF710
:1016B00089F9E368013D23F48053E3600A204FF485
:1016C0000066FFF77FF96B1CC4F20106DDD1F368F9
:1016D00043F40063F360F8BD40F0BF604FF46D4326
:1016E00040F40030CEF20003D8607047C37830B4C5
:1016F00073B90378012103F01F02914030BC5A09ED
:101700004FF461432032CEF2000343F822107047B9
:101710004FF46D43CEF20003DB684478DB43C3F340
:1017200002230F22C3F1040122FA03F38C408578CF
:10173000017803EA0502224301F160431201D2B2AB
:1017400003F5614383F800230278012102F01F03AF
:10175000994030BC4FF461435209CEF2000343F884
:101760002210704721F0604121F07F014FF46D435A
:101770000843CEF200039860704700BF4FF46D43FA
:10178000CEF200031A6919B922EA00001861704705
:1017900010431861704700BF4EF21003CEF20003F1
:1017A0001A6804280CBF42F0040222F004021A60F6
:1017B000704700BF08B54FF41053C4F201039842BC
:1017C00018D04FF42053C4F2010398421ED04FF4B6
:1017D0007053C4F20103984200D008BD4FF400409A
:1017E000012102F0C5FCBDE808404FF40040002193
:1017F00002F0BEBC4FF40070012102F0B9FCBDE85C
:1018000008404FF40070002102F0B2BC4FF4806039
:10181000012102F0ADFCBDE808404FF480600021DA
:1018200002F0A6BC436830B423F470240B680A7934
:1018300024F48074234343EA0223436085688C6860
:10184000CA684FF2FD73CFF6F17322432B404D79F6
:10185000134343EA450383600B7CC26A013BDBB25E
:1018600022F4700242EA0353C36230BC704700BFE7
:101870000023012202740360037143718360C3601B
:10188000704700BF836819B923F001038360704774
:1018900043F0010383607047836819B923F48073B0
:1018A0008360704743F4807383607047C9B24368B4
:1018B0001AB923EA0101416070471943416070473A
:1018C000836843F008038360704700BF8068C0F3FB
:1018D000C0007047836843F004038360704700BF13
:1018E0008068C0F380007047836819B923F4A003AF
:1018F0008360704743F4A003836070478068C0F33F
:10190000805070474368013923F4604343EA413310
:1019100043607047436819B923F40063436070471C
:1019200043F4006343607047092970B41FD9A1F1E3
:101930000A0404EB44040726A64003FA04F4C5682D
:10194000062A25EA060343EA0403C3601DD90C2ACC
:1019500029D970BC0D3A02EB82021F23934001FA91
:1019600002F2C16A21EA03031A43C262704701EB23
:1019700041040726A64003FA04F40569062A25EA6D
:10198000060343EA04030361E1D870BC013A02EBA9
:1019900082021F23934001FA02F2416B21EA030302
:1019A0001A4342637047073A02EB82021F239340B7
:1019B00070BC01FA02F2016B21EA03031A430263CD
:1019C000704700BF836819B923F4801383607047A0
:1019D00043F4801383607047C06C80B2704700BFCF
:1019E00042F24C43C4F2010318687047436819B9C6
:1019F00023F480634360704743F48063436070471F
:101A0000436819B923F480534360704743F480530B
:101A100043607047836823F4E04319438160704753
:101A2000836819B923F400438360704743F400438B
:101A300083607047836819B923F402138360704789
:101A400043F40213836070478068C0F340507047CE
:101A5000092970B41BD801EB41040726A64003FAFC
:101A600004F4056925EA060323430361836B02320C
:101A7000C3F30154121BD2B202EB82021F24944022
:101A8000914023EA04030B43836370BC7047A1F1C8
:101A90000A0404EB44040726A64003FA04F4C568CC
:101AA00025EA06032343C360E0E700BF836B0139E7
:101AB00023F4401343EA01538363704782B0002349
:101AC00001930190019B19440191019B1A6002B09E
:101AD000704700BF82B0002301930190019B28331F
:101AE00019440191019B186880B202B0704700BF91
:101AF000436823F4400323F40073194341607047A3
:101B000041628262704700BF436823F01F0319439C
:101B1000416070474FF41053C4F201039A6818B93A
:101B200022F400029A60704742F400029A60704703
:101B3000036819420CBF002001207047C9430160AF
:101B4000704700BF4368006810EA112004D0C9B292
:101B500019420CBF00200120704700BF6FEA11211D
:101B60000160704708B5012002F01EFBBDE8084087
:101B7000002002F019BB00BF48F20463C4F20D2339
:101B8000186070474FF40643C4F20D231860704785
:101B900048F28863C4F20D23186070474FF4D842AE
:101BA000C4F20002938D23F460731B041B0C1843D2
:101BB000908570474FF4D842C4F20002938D23F011
:101BC0007F031B041B0C1843908570474FF4D843C8
:101BD00082B0C4F20003002201920193019B1844D9
:101BE0000190019B196002B0704700BF4FF4D843C9
:101BF00082B0C4F20003002201920193019B1844B9
:101C00000190019B188880B202B0704748F2A0632F
:101C1000C4F20D231868C0B2704700BF4FF4D84318
:101C2000C4F200039A8E92B242F001029A86704783
:101C300048F2A463C4F20D231868C0B2704700BF15
:101C40004FF4D843C4F200039A8E92B242F00202DB
:101C50009A86704708B54FF4C843C4F2000398420F
:101C60000BD04FF08060012102F090FABDE80840EF
:101C70004FF08060002102F089BA4FF0007001211E
:101C800002F084FABDE808404FF00070002102F035
:101C90007DBA00BF036830B423F002030360036819
:101CA00043F0010303604368DD0707D44FF6FF7379
:101CB00001E0013B02D04268D407FAD5436813F033
:101CC000010308BF184658D08B79012B03680CBF5D
:101CD00043F0800323F080030360CB79012B03687A
:101CE0000CBF43F0400323F0400303600B7A012B49
:101CF00003680CBF43F0200323F0200303604B7AFA
:101D0000012B03680CBF43F0100323F010030360A2
:101D10008B7A012B03680CBF43F0080323F0080300
:101D20000360CB7A012B03680CBF43F0040323F05C
:101D3000040303608B78CA780D799B074C7943EADA
:101D400002620B8842EA054242EA0452013B134315
:101D5000C361036823F0010303604368D90707D513
:101D60004FF6FF7301E0013B02D04268D207FAD47C
:101D7000406800F0010080F0010030BC704700BFF7
:101D8000837A012199404FF4C843C4F2000370B430
:101D9000D3F80042CA4344F00104C3F80042D3F828
:101DA0001C421440C3F81C42047BCCB9D3F80C424B
:101DB000C6881440C3F80C42847A4588483445EA02
:101DC000064543F83450867A8588048846F2406395
:101DD000F600C4F2000344EA054433445C60047B2B
:101DE000012C47D0C37A63BB4FF4C843C4F200034D
:101DF000D3F804421440C3F8044203896BBB4FF488
:101E0000C843C4F20003D3F814422240C3F814229A
:101E1000437B70BC012B01BF4FF4C843C4F20003E5
:101E2000D3F81C22114308BFC3F81C124FF4C84357
:101E3000C4F20003D3F8002222F00102C3F800220A
:101E400070474FF4C843C4F20003D3F804420C4374
:101E5000C3F804420389002BD1D0012B01BF4FF4FA
:101E6000C843C4F20003D3F814220A4308BFC3F8DE
:101E70001422CDE74FF4C843C4F20003D3F80C4258
:101E800006880C43C3F80C42847A4588483445EAF6
:101E9000064543F83450867A8588C48846F2406304
:101EA000F600C4F20003334444EA05445C6099E759
:101EB000002310B402210324012204714171028025
:101EC0008371C371037243728372C3728370C37070
:101ED0005DF8044B704700BF4FF4C843C4F20003E1
:101EE000D3F8002242F00102C3F80022D3F8002206
:101EF00022F47C5222F00E02C3F80022D3F8002212
:101F000042EA0020C3F80002D3F8002222F00102C6
:101F1000C3F80022704700BF036819B923F4803367
:101F20000360704743F48033036070470368A9B9C6
:101F300023F080030360D0F8843123F48073C0F869
:101F40008431D0F8943123F48073C0F89431D0F800
:101F5000A43123F48073C0F8A431704743F08003A8
:101F60000360D0F8843143F48073C0F88431D0F832
:101F7000943143F48073C0F89431D0F8A43143F421
:101F80008073C0F8A43170478368F0B45B010246E7
:101F900005D483681F0155D50123184601E00023AD
:101FA00018461C011319D3F8805105F00105C3F838
:101FB00080510D7A002D3BD04F68D3F8806145EAFF
:101FC000C7054F7A35433D43C3F880518D7A22448B
:101FD00005F00F048C72D3F8845102F5C47425F017
:101FE0000F05C3F884518E7AD3F884513543C3F872
:101FF00084514D7B8E7BCF7A2D0445EA06650E7B9E
:102000003D4345EA0625C2F888514A7C8E7CCD7B4B
:102010001204097C42EA06622A4342EA0122626013
:10202000D3F8802142F00102C3F88021F0BC704750
:102030000D684F7AD3F8806147EA45553543C3F8B8
:102040008051C3E78368DE0058BF0420EED5022329
:102050001846A6E7012925D01ED3022918D1826887
:102060000023C1F2030313400322C0F20042934253
:102070000BD00CD94FF44072C0F60002934204D04A
:102080000022C1F20302934204D1012070470BB930
:10209000022070470020704782680323C0F200438B
:1020A0001340E1E782684FF44073C0F60003134029
:1020B000DAE700BF01290DD007D3022904D18368D4
:1020C00043F40003836070477047836843F08003E4
:1020D00083607047836843F400438360704700BFA8
:1020E00070B40C010319D3F8B05105F00405EDB23A
:1020F0001572BDBBD3F8B0516D0D1560D3F8B0515A
:10210000044405F002055572D3F8B46106F00F06D9
:102110009672D3F8B4311B0AD374D4F8B831D372A1
:10212000D4F8B8311B0A1373D4F8B8311B0C5373AD
:10213000D4F8B8311B0E9373D4F8BC31D373D4F8F0
:10214000BC311B0A1374D4F8BC311B0C5374D4F883
:10215000BC311B0E937451B1036970BC43F0200372
:1021600003617047D3F8B051ED085560C6E7C36806
:1021700070BC43F02003C360704700BF21B1036906
:1021800043F0200303617047C36843F02003C3603A
:10219000704700BF31B101290ABF0069002000F07B
:1021A00003007047C06800F003007047D9B90368A6
:1021B00023F0030343F001030360436803F00303C8
:1021C000012B09D04FF6FF7301E0013B04D04268B8
:1021D00002F00302012AF8D1406800F00300421E19
:1021E000504250417047012903D0022917D00020E6
:1021F0007047036823F00303036043689B0707D01D
:102200004FF6FF7301E0013B02D042689107FAD11B
:10221000436813F0030F14BF0020012070470368C8
:1022200023F0030343F002030360436803F0030356
:10223000022B09D04FF6FF7301E0013B04D0426846
:1022400002F00302022AF8D1406800F00300821E67
:1022500050425041704700BF036823F0030343F02E
:1022600002030360406800F00300811E48424841B9
:10227000704700BF036823F00203036043689907B7
:1022800007D54FF6FF7301E0013B02D04268920789
:10229000FAD4406880F00200C0F34000704700BFED
:1022A000806900F0700070478069000E704700BFC1
:1022B0008069C0F30740704743691AB923EA0101F6
:1022C0004161704719434161704700BF11F4700FBD
:1022D00007D08369C3F313030B420CBF0020012016
:1022E0007047CB0107D54368C3F313030B420CBF00
:1022F0000020012070470A0107D58368C3F3130348
:102300000B420CBF0020012070478B014CBFC368FB
:102310000369C3F313030B420CBF00200120704775
:102320007023C3F2F00399420CD08A01C1F3130366
:1023300006D44A0109D40A014CBF83604360704748
:10234000C36070470023836170470361704700BF1B
:1023500043690B401ED0402967D00ED9B1F5006FFC
:102360005CD019D8B1F5007F50D0B1F5806F37D06F
:10237000B1F5807F27D00020704704294AD018D9B2
:1023800010293DD0202937D00829F4D1C068C0F3E6
:102390000010704718467047B1F5803F24D0B1F562
:1023A000003F25D0B1F5004FE5D14068C0F3800073
:1023B000704701290BD00229DDD1C06810F003005D
:1023C00018BF01207047806900F0010070478068E5
:1023D00000F0013020F08070003018BF01207047FD
:1023E0008069C0F3800070474068C0F3C000704748
:1023F0004068C0F3001070470069C0F3C000704728
:10240000006910F0030018BF012070478069C0F315
:1024100040007047C068C0F3C0007047836913F084
:10242000700F0CBF0020012070470069C0F300103E
:10243000704700BFB1F5807F1ED00DD9B1F5006F98
:1024400024D013D9B1F5803F25D0B1F5003F31D06C
:10245000B1F5004F1AD0704708291FD00FD9202995
:1024600025D040292AD1102303617047B1F5007FA0
:1024700002D0B1F5806F20D1042343607047012959
:102480000FD004291BD10823C36070470022042306
:102490008261436070470823436070471023C36024
:1024A000704740F20113C0F20103836070470823B4
:1024B000036170471023436070477047704770474F
:1024C00008B54FF08040012101F060FEBDE80840F2
:1024D0004FF08040002101F059BE00BF4FF4F0439F
:1024E000C4F2000342881968008801F0F301024336
:1024F0000A4392B21A6070470023C4F20F23186097
:1025000030B94FF4F042C4F200021368DB07FCD488
:10251000704700BF0423C4F20F231860704700BF48
:102520004FF4F043C4F20003586070474FF4F04397
:10253000C4F20003986070474FF4F043C4F2000304
:10254000586170474FF4F043C4F200039869C0B279
:10255000704700BF4FF40073C4F20F2301221A60CA
:10256000704700BF4FF40173C4F20F231860704727
:1025700020F07F43000F14BF47F60C0247F610020D
:10258000C4F20002126818BF1B0C1A420CBF0020D4
:10259000012070474FF4F043C4F200031A69C043AE
:1025A000196920F0030002F0020202430A401A6196
:1025B000704700BF4FF4F043C4F200031A681B6970
:1025C000184018BFC2F34000704700BF4FF4F043FB
:1025D000C4F200031A69C043196920F0030002F035
:1025E000020202430A401A61704700BF4FF4405391
:1025F000C4F2020301229A60704700BF4FF44053B7
:10260000C4F2020318601868704700BF51B14FF45C
:10261000405200EB8101C4F2020250F8043B8842B0
:102620001360FAD14FF44053C4F2020318687047A4
:102630004FF44053C4F20203186870474FF44053FC
:10264000C4F20203187170474FF44053C4F20203FE
:102650001879704708B54FF00050012101F096FD40
:10266000BDE808404FF00050002101F08FBD00BFD1
:102670004A680B6830B48C681343C968234340F63A
:10268000FE751943854001FA00F04FF4E843C4F2A7
:1026900000031A6822EA05010843186030BC70473D
:1026A0000023036043608360C3607047012303FA23
:1026B00000F04FF4E843C4F200031A6819B922EAA3
:1026C0000000186070471043186070474FF4805343
:1026D00003FA00F04FF4E843C4F200031A6819B992
:1026E00022EA00001860704710431860704700BF6E
:1026F0000123000903FA00F04FF4E843C4F2000399
:102700005A6819B922EA00005860704710435860AF
:10271000704700BF4FF4E843C4F200035A6818B989
:1027200022F003025A60704742F003025A60704779
:102730004FF4E8438140C4F2000322B91A6822EA48
:102740000101196070471A6811431960704700BF92
:102750004FF4E84382B0C4F20003002201920193D7
:10276000019B083318440190019B196002B0704727
:102770004FF4E84382B0C4F20003002201920193B7
:10278000019B143318440190019B196002B07047FB
:10279000082847F220430CBF42EA012142EA0141E6
:1027A000C4F20003C15070474FF4E84382B0C4F252
:1027B0000003002201920193019B2C3303EB900054
:1027C0000190019B186880B202B070474FF400532B
:1027D000CEF204031868000C704700BF4FF400539A
:1027E000CEF204031868C0F30B0070474FF4005397
:1027F000CEF204035A6819B922EA00005860704703
:1028000010435860704700BF036808214FF6FE72FE
:10281000C4F202011A4088424FF0000302600360D4
:1028200043608360C3604FD01C23C4F2020398420C
:1028300051D03023C4F20203984254D04423C4F24E
:102840000203984257D05823C4F2020398425AD048
:102850006C23C4F2020398425DD08023C4F20203C9
:10286000984227D04FF48163C4F20203984229D0E2
:1028700040F21C43C4F20203984254D04FF48663E2
:10288000C4F20203984257D040F24443C4F2020318
:1028900098425AD04FF48B63C4F20203984201BFAE
:1028A0004FF48063C4F202035A6842F4702208BFF6
:1028B0005A6070470023C4F202035A6842F0706203
:1028C0005A6070474FF48063C4F202035A6842F0C2
:1028D0000F025A6070470023C4F202035A6842F0A4
:1028E000F0025A6070470023C4F202035A6842F4AF
:1028F00070625A6070470023C4F202035A6842F4BF
:1029000070425A6070470023C4F202035A6842F4CE
:1029100070225A6070470023C4F202035A6842F4DE
:1029200070025A6070474FF48063C4F202035A6821
:1029300042F0F0025A6070474FF48063C4F2020321
:102940005A6842F470625A6070474FF48063C4F270
:1029500002035A6842F470425A6070478A68F0B4C1
:102960000C6A0B6914434A691C438B69CE69224384
:1029700007684D6A13438C6A1E43354327F4FF4CA6
:10298000CB680F684A682C432CF0700C44EA0C04A6
:10299000046043608760C260F0BC7047002303603E
:1029A00043608360C360036143618361C361036209
:1029B00043628362704700BF29B902684FF6FE7315
:1029C000134003607047036843F0010303607047DE
:1029D00003681AB923EA01010160704719430160D5
:1029E000704700BF41607047406880B2704700BFC9
:1029F000C3004CBF4FF480630023C4F202031B6882
:102A000003420CBF00200120704700BFC2004CBF32
:102A10004FF480630023C4F202035860704700BF84
:102A2000C1004CBF4FF480630023C4F202031B6853
:102A300003420CBF00200120704700BFC3004CBF01
:102A40004FF480630023C4F202035860704700BF54
:102A50004FF480634FF6FF71C4F201030022C0F20D
:102A60000F011A605A609A60DA605961704700BFBE
:102A7000837930B443B34FF48063C4F20103016837
:102A80001A68CC4322401A605D6802792C4002F13A
:102A900080425C6002F582321568447929431160F6
:102AA00002689868D14308409860D868102C01EA01
:102AB0000001D96014D004F1804404F58234236805
:102AC0001A43226030BC70470379016803F18043E8
:102AD00003F582331A6830BC22EA01021A6070479B
:102AE000996830BC11439960D9680A43DA6070472D
:102AF00000230C224271036003718371704700BF91
:102B00004FF48063C4F201031A69104318617047DF
:102B10004FF48063C4F201035B6918420CBF0020CC
:102B2000012070474FF48063C4F20103586170477D
:102B30004FF48063C4F201031A685B69034004D058
:102B400010420CBF0020012070471846704700BF9C
:102B50004FF48063C4F20103586170474FF400538F
:102B6000C4F202031A6802F038021043186070477A
:102B70004FF40053C4F202031A6822F008021A60EC
:102B80001A681043186070474FF40053C4F20203F0
:102B90001A6822F010021A601A6810431860704711
:102BA0004FF4005340F2231148F6AB12C4F2020373
:102BB000C4F26751CCF6EF5259605A60704700BFBB
:102BC0004FF4005340F2231148F6AB12C4F2020353
:102BD000C4F26751CCF6EF5259605A60704700BF9B
:102BE0004FF40053C4F202031A6942F080021A61E2
:102BF000704700BF4FF40053C4F202031A6942F059
:102C000080021A61704700BF4FF40053C4F2020300
:102C1000D8698008704700BF4FF40053C4F2020324
:102C2000186A70474FF40053C4F20203D869C0F326
:102C3000400070474FF40053C4F202031868C0F319
:102C4000401070474FF40053C4F202031A6919B9D7
:102C500022EA00001861704710431861704700BFF6
:102C60004FF400530128C4F2020305D0DB68184278
:102C70000CBF002001207047D86900F001007047A8
:102C80004FF40053C4F20203D86070474FF400536E
:102C9000C4F20203DA68D1070BD4DA68520701D50F
:102CA00002207047DB6813F0100F0CBF04200320D4
:102CB00070470120704700BF4FF40053C4F2020375
:102CC000DA68D2070BD4DA68500701D502207047C2
:102CD000DB6813F0100F0CBF0420032070470120A5
:102CE000704700BF10B50446FFF7E6FF411E4B4298
:102CF0004B41002C08BF002363B1FFF7DDFF013C0F
:102D00000CBF00230123012814BF002303F001039B
:102D1000002BF2D1002C08BF052010BD38B50546A8
:102D20004FF43020FFF7DEFF042800D038BD4FF409
:102D30000054C4F2020423694FF4302043F002032C
:102D400023616561236943F040032361FFF7CAFFF4
:102D5000226941F6FD731340236138BD10B54FF46D
:102D60003020FFF7BFFF042800D010BD4FF40054FF
:102D7000C4F2020423694FF4302043F004032361BA
:102D8000236943F040032361FFF7ACFF226941F65A
:102D9000FB731340236110BD38B54FF40054C4F2E7
:102DA0000204E3694FF4302013F0020F0CBFA52595
:102DB0000025FFF797FF042800D038BD40F223120A
:102DC00048F6AB13C4F26752CCF6EF53A260A3608F
:102DD00023694FF4302043F020032361236943F03B
:102DE00040032361FFF77EFF042807D00528E4D0C5
:102DF000226941F6EF731340236138BD226941F621
:102E0000DF731340236122694FF4784342F01002CC
:102E1000C1F6FF7322614FF400501D80FFF762FF7F
:102E20000528E5D1C9E700BF70B5002382B005468B
:102E30004FF400500C460193FFF754FF042801D0D3
:102E400002B070BD4FF40056C4F202063269A3B25C
:102E500042F0010232614FF400502B80FFF742FF35
:102E6000042806D0326941F6FE731340336102B084
:102E700070BD02350195019B240C1C804FF400505D
:102E8000FFF730FF326941F6FE7313403361D7E735
:102E900070B504464FF400500D46FFF723FF042899
:102EA00000D070BD4FF40056C4F2020633694FF4EF
:102EB000005043F0010333612580FFF713FF3269AF
:102EC00041F6FE731340336170BD00BF70B5054617
:102ED0004FF400500E46FFF705FF042800D070BDE8
:102EE0004FF4005440F2231248F6AB13C4F202042C
:102EF000C4F26752CCF6EF53A260A36023694FF48B
:102F0000005043F0100323612E80FFF7EBFE0528ED
:102F10001FBF226941F6EF731340236170BD00BFEC
:102F200010B504464FF40050FFF7DCFE042800D033
:102F300010BD4FF4005340F2231148F6AB12C4F217
:102F40000203C4F26751CCF6EF5299609A60196996
:102F5000E443E2B241F01001FF2A196108BF0123E6
:102F60000BD04FF47843C1F6FF731A814FF4005031
:102F7000FFF7B8FE021F53425341C4F30722FF2A52
:102F80000CBF002103F00101A1BBC4F30742FF2ADB
:102F90000CBF002103F00101E1B9240EFF2C0CBF8E
:102FA000002303F001035BB90528C1D04FF400539F
:102FB000C4F20203196941F6EF720A401A6110BDAA
:102FC0004FF47843C1F6FF73DC814FF40050FFF7F4
:102FD00089FEE9E74FF47843C1F6FF739A814FF415
:102FE0000050FFF77FFEB0F1040EDEF1000353EB5B
:102FF0000E03D2E74FF47843C1F6FF735A814FF4C2
:103000000050FFF76FFEB0F1040CDCF1000353EB4E
:103010000C03BAE738B505464FF43020FFF762FEDF
:10302000042800D038BD4FF4005440F2231248F673
:10303000AB13C4F20204C4F26752CCF6EF53A260A1
:10304000A36023694FF4302043F0200323612369F8
:1030500043F040032361FFF745FE042807D005280D
:103060001FBF226941F6DF731340236138BD226917
:1030700041F6DF7313402361236943F0100323619A
:103080004FF47843C1F6FF738DB9A5221A804FF42F
:103090003020FFF727FE0528C4D04FF40053C4F2B8
:1030A0000203196941F6EF720A401A6138BD002225
:1030B0001A80ECE7F8B54FF4005440F2231548F6B7
:1030C000AB13C4F20204C4F26755CCF6EF53A5600B
:1030D0000746A3604FF400500E461546FFF702FE68
:1030E000042800D0F8BD226947F0F8073E434FF4AA
:1030F0007843C1F6FF7342F01002354322614FF46A
:1031000000505D80FFF7EEFD05281FBF226941F6E4
:10311000EF7313402361F8BD10B50446FFF7CCFDF3
:10312000411E4B424B41002C08BF002363B1FFF707
:10313000C3FD013C0CBF00230123012814BF002361
:1031400003F00103002BF2D1002C08BF052010BDB5
:1031500010B54FF43020FFF7DFFF042800D010BD7A
:103160004FF40054C4F2020423694FF4302043F0BA
:1031700004032361236943F040032361FFF7CCFF7D
:10318000226941F6FB731340236110BD10B44FF068
:10319000204398B143F2D20243F820204FF48273C7
:1031A000441C6FF07042CAF200034FF0204141F816
:1031B000242043F820205DF8044B704743F2DB02E3
:1031C0001A60EBE710280CBF60238023CAF20003CB
:1031D0004FF0FC3218204021186059609A60DA6084
:1031E000704700BFA023CAF200034FF0FC32182042
:1031F0000021186059609A60DA601A61704700BF58
:1032000083684168C268F0B443EA01060169164365
:1032100042690E4381691643C2690E43016A16432F
:10322000426A846A314341EA0206C16A0268056B58
:10323000344344EA0106940004F1204435432560F8
:10324000082B08BF236802F1010704BF43F04003C5
:103250002360436BB1F5804F1D689E695C6846EA48
:1032600005069D6846EA0416DC6846EA05251E69DF
:1032700045EA04445B6944EA065444EA03644FF0B7
:10328000204343F8274009D0F0BC4FF48273CAF2C0
:1032900000036FF0704143F822107047836B4FF4C6
:1032A00082719D6993E81100054398681E6945EA9B
:1032B000041444EA00205B6940EA065040EA0360D7
:1032C000CAF2000141F82200F0BC7047C2692DE942
:1032D000F00781684768036A966847EA0109C7688A
:1032E000516804699D684FEA064A49F00809166862
:1032F00049EA07094AEA012AD1685A6847694FEA48
:10330000054849EA04091D6884690068DB6848EAE1
:10331000022848EA0502102842EA036249EA4729DE
:103320004AEA060A0CBF60238023CAF2000349EA76
:1033300044344AEA01611C609960BDE8F007DA6034
:10334000704700BF90E80C0042F01001826841EA2B
:103350004321A023CAF2000341EA4231C26870B49B
:1033600019609468516815682404D26844EA012100
:10337000294341EA026102699960946851681668BC
:103380002404D56844EA01213143426941EA0561D8
:10339000D9609068516814680004D26840EA01213D
:1033A000214341EA0261196170BC7047F0B4816B3E
:1033B000446B00230F22FF254FF480574FF4005633
:1033C0004FF0020C47628662C0F804C0036083605D
:1033D000C360036143618361C3610362C3620363CA
:1033E000A36122606260E26022616261A5608D601B
:1033F0000A604A60CA600A614A618B61F0BC70472A
:1034000030B4016AC469FC230022102505604260C3
:103410008260C26002614261826123606360A36076
:10342000E3600B604B608B60CB6030BC704700BFCB
:1034300030B40169C4684269FC2300250560456019
:10344000856023606360A360E3600B604B608B600A
:10345000CB6030BC136053609360D360704700BF93
:10346000800000F1204039B902684FF6FE73C0F2C7
:103470000F03134003607047036843F001030360C8
:10348000704700BF51B110280CBF60238023CAF2DF
:1034900000031A6842F004021A60704710280CBF3B
:1034A00060228022CAF2000211684FF6FB73C0F25C
:1034B0000F030B401360704750B9A022CAF20002FC
:1034C00011684FF6FB73C0F20F030B401360704797
:1034D000A023CAF200031A6842F004021A6070477F
:1034E00051B110280CBF60238023CAF200031A6870
:1034F00042F040021A60704710280CBF6022802200
:10350000CAF2000211684FF6BF73C0F20F030B40FE
:103510001360704710280CBF60238023CAF2000399
:103520005869704762B1102820D0B0F5807F0CBF79
:103530008023A023CAF200035A68114359607047E0
:1035400010280BD0B0F5807F0CBF8023A023CAF2D7
:1035500000035A6822EA0101596070476023CAF2E9
:1035600000035A6822EA0101596070476023CAF2D9
:1035700000035A6811435960704700BF10280CD0EF
:10358000B0F5807F0CBF8023A023CAF200035B68E4
:103590000B420CBF0020012070476023CAF20003D9
:1035A0005B68F5E710280BD0B0F5807F0CBF802357
:1035B000A023CAF200035A6822EA01015960704749
:1035C0006023CAF200035A6822EA01015960704779
:1035D000102812D0B0F5807F0CBF8023A023CAF240
:1035E00000035B6813EAD1020CBF002001200B42EC
:1035F0000CBF002000F0010070476023CAF20003F6
:103600005B68EFE710280BD0B0F5807F0CBF8023FC
:10361000A023CAF200035A6822EAD1015960704718
:103620006023CAF200035A6822EAD1015960704748
:1036300008B54FF40063C4F20103984230D04FF450
:103640004063C4F20103984234D04FF48053C4F273
:103650000103984238D04FF4A053C4F201039842BA
:103660003CD04FF4C053C4F20103984240D04FF411
:10367000E053C4F20103984244D04FF40053C4F223
:103680000103984200D008BD4FF48070012100F082
:103690006FFDBDE808404FF48070002100F068BD68
:1036A0000420012100F064FDBDE808400420002151
:1036B00000F05EBD0820012100F05AFDBDE8084081
:1036C0000820002100F054BD1020012100F050FD21
:1036D000BDE808401020002100F04ABD2020012153
:1036E00000F046FDBDE808402020002100F040BD6C
:1036F0004020012100F03CFDBDE8084040200021B1
:1037000000F036BD8020012100F032FDBDE8084008
:103710008020002100F02CBD08B50120014600F0FA
:1037200027FDBDE808400120002100F021BD00BFB9
:103730002DE9F003CD78EB0648BF8B78098805F0BA
:103740000F0748BF1F4311F0FF0F25D0D0F800C06E
:10375000002301264FF00F0802E00133082B19D097
:1037600006FA03F202EA01049442F6D19A0008FA3A
:1037700002F907FA02F22CEA090C282D4CEA020C95
:1037800008BF4461E9D0482D03F1010308BF04617B
:10379000082BE5D1C0F800C0FF2927D9D0F804C014
:1037A000002301264FF00F0802E00133082B1BD045
:1037B00003F1080206FA02F202EA01049442F4D18B
:1037C0009A0008FA02F907FA02F22CEA090C282DED
:1037D0004CEA020C08BF4461E7D0482D03F1010315
:1037E00008BF0461082BE3D1C0F804C0BDE8F003B2
:1037F000704700BF4FF6FF710222042301808270E0
:10380000C3707047836819420CBF002001207047C5
:10381000806880B2704700BFC36819420CBF0020A7
:1038200001207047C06880B2704700BF01617047D7
:10383000416170470AB9416170470161704700BF3B
:10384000C160704741F48033836181618361836922
:10385000836970470023C4F2010310B41C684FF65B
:1038600080722240114341EA001018605DF8044B59
:10387000704700BF1C23C4F220231860704700BFAC
:1038800000284FF00003C4F2010300F44012B4BF5B
:10389000DB695B68B2F5401F30B484B21DD0C20250
:1038A00055BF420DC0F30342120103254CBF05FA78
:1038B00002F204FA02F223EA020343F0706319B140
:1038C000420D1201944023430022C4F20102002859
:1038D000B4BFD361536030BC70470022C4F2010210
:1038E000556823F0706325F070655560E7E700BF09
:1038F00001F003039B000F229A4000FA03F301F04A
:10390000FC0101F1804101F58031886820EA020262
:103910008A608A6813438B60704700BFDC23C4F25F
:1039200020231860704700BF08B54FF4A843C4F2C5
:10393000000398420BD04FF48000012100F026FCD8
:10394000BDE808404FF48000002100F01FBC4FF498
:103950000010012100F01AFCBDE808404FF40010EF
:10396000002100F013BC00BFF0B587B00446868884
:1039700001A80D4600F080FB4DF683630399C4F265
:103980001B33A3FB012326F03F069F0C3604360CA5
:103990001FFA87FC4CEA0606A68023882A6823F0D3
:1039A000010348F2A0601B04C0F201001B0C82421C
:1039B000238024D85300B1FBF3F39BB20CF1010C2C
:1039C000032B98BF0423A4F820C0A38323886E8907
:1039D0009BB243F0010323802388A88823F48163EA
:1039E00023F002032989AA891B0430431B0C0343DB
:1039F0000A439BB292B22380228107B0F0BDE888CF
:103A00004BF6FF7398421DBF02EB820202EB82026B
:103A1000B1FBF2F302EB42020BBFB1FBF2F39BB23C
:103A20009BB243F48043C3F30B020AB943F0010392
:103A30004FF4967202FB07F744F6D352C1F26202CA
:103A400082FB07129209013243F400432284BCE74F
:103A5000002310B44BF6FF7141F288344FF48042DA
:103A60000460C18082818380038143815DF8044BBF
:103A7000704700BF038829B923F001031B041B0C06
:103A8000038070479BB243F001030380704700BF7F
:103A9000838829B923F400631B041B0C83807047BF
:103AA0009BB243F400638380704700BF838829B9C9
:103AB00023F480531B041B0C838070479BB243F498
:103AC00080538380704700BF038829B923F4807333
:103AD0001B041B0C038070479BB243F4807303806C
:103AE000704700BF038829B923F400731B041B0C23
:103AF000038070479BB243F400730380704700BF9C
:103B0000038829B923F480631B041B0C03807047CE
:103B10009BB243F480630380704700BF838901F048
:103B2000FE0123F0FE031B041B0C0B438381704733
:103B3000838929B923F001031B041B0C838170477F
:103B40009BB243F001038381704700BF038829B90A
:103B500023F040031B041B0C038070479BB243F00F
:103B600040030380704700BF83889BB21AB923EAE1
:103B7000010181807047194381807047018270473D
:103B8000008AC0B2704700BF1AB901F0FE0101827D
:103B9000704741F001010182704700BF82B00023ED
:103BA00001930190019B19440191019B188880B2F7
:103BB00002B07047038819B9C3F30E03038070473E
:103BC0006FEA43436FEA53439BB20380704700BFE1
:103BD0000388B1F5006F15BF23F400639BB21B048B
:103BE00043F4006318BF1B0C038070470388B1F5D2
:103BF000005F15BF23F400539BB21B0443F4005332
:103C000018BF1B0C03807047038829B923F4805325
:103C10001B041B0C038070479BB243F4805303804A
:103C2000704700BF0388B1F5006F15BF23F4006330
:103C30009BB21B0443F4006318BF1B0C0380704746
:103C4000038829B923F020031B041B0C0380704751
:103C50009BB243F020030380704700BF008BC0F38A
:103C600007207047038829B923F010031B041B0C9D
:103C7000038070479BB243F010030380704700BF7E
:103C8000038829B123F080031B041B0C03807047B9
:103C90009BB243F080030380704700BF838BB1F574
:103CA000804F1BBF23F480431B049BB21B0C08BF37
:103CB00043F4804383837047828A038B92B242EA43
:103CC000034321F07F4018400B1A58425841704777
:103CD000828A038B90B240EA034020F07F40704715
:103CE00082B000230A0F0093019301900092009B81
:103CF00021F07F4153B1019B14330193019B1B6859
:103D000019420CBF0020012002B07047019B090C32
:103D100018330193F2E700BFC94389B2818270472B
:103D20008388808A9BB280B2084006D001F0E061AF
:103D300013EA11410CBF002001207047C94389B22A
:103D4000818270474FF44053C4F2000318607047FB
:103D50004FF44053C4F20003586070474FF440538F
:103D6000C4F20003986070474FF44053C4F200035C
:103D70004AF6AA221A6070474FF44053C4F2000377
:103D80004CF6CC421A6070474FF44053C4F2000323
:103D9000DB6818420CBF00200120704708B54FF0C7
:103DA0008050012100F0F2F9BDE808404FF080504A
:103DB000002100F0EBB900BF2023C4F20E231860ED
:103DC000704700BF1023C4F20E231860704700BF75
:103DD0004FF4E043C4F200031A6822F0E0021043FB
:103DE00018607047A023C4F20E231860704700BF0C
:103DF0004FF4E042C4F2000210B414684FF46D4373
:103E000024F0030420431060CEF200031A69012954
:103E100042F004021A610BD020BF4FF46D43CEF282
:103E200000031A695DF8044B22F004021A6170471E
:103E300030BFF2E74FF4E043C4F2000319684FF4D7
:103E40006D4241F0040119601968CEF2000241F0A0
:103E500002011960136943F00403136130BF704716
:103E60004FF4E043C4F200035B6818420CBF00202B
:103E7000012070474FF4E043C4F200031A6842EA9D
:103E800080001860704700BF4FF48053C4F20203F3
:103E90001968002241F0010119605968CFF6FF024C
:103EA0000A405A6019684FF41F0221F0847121F40E
:103EB00080311960196821F480211960596821F452
:103EC000FE0159609A6070474FF48053C4F20203B8
:103ED0001A68B0F5803F22F480321A601A6822F422
:103EE00080221A6008D0B0F5802F04D11A6842F4FD
:103EF000A0221A60704770471A6842F480321A6034
:103F0000704700BF82B000234FF480520193C4F287
:103F1000020213689B030FD4019B01330193019BA1
:103F2000B3F5A06FF5D14FF48053C4F202031868C3
:103F3000C0F3404002B07047019B01330193019BE5
:103F4000F1E700BF4FF48053C4F202031A6822F075
:103F5000F80242EAC0001860704700BF0023C4F2B4
:103F600042231860704700BF4FF48053C4F202032D
:103F70005A6822F47C12114308435860704700BF0E
:103F80006023C4F242231860704700BF4FF480538F
:103F9000C4F202035A6822F00302104358607047CB
:103FA0004FF48053C4F20203586800F00C007047CD
:103FB0004FF48053C4F202035A6822F0F002104317
:103FC000586070474FF48053C4F202035A6822F4D9
:103FD000E0621043586070474FF48053C4F202030C
:103FE0005A6822F4605242EAC0005860704700BF2D
:103FF00041F20903C4F202031A7819B922EA000057
:104000001870704710431870704700BFD823C4F26F
:1040100042231860704700BF4FF48053C4F202037C
:104020005A6822F440421043586070474FF481535D
:10403000C4F20203002201281A701A7005D0042865
:1040400002D105221A70704770471870704700BF80
:104050004FF49063C4F24223186070474FF48053CA
:10406000C4F202031A6A10431862704740F23C43DC
:10407000C4F24223186070474FF48053C4F2020325
:104080005A6810B402F00C02042A01D0082A2AD07F
:104090004FF49051C0F27A0101604FF48052C4F2A3
:1040A0000202546840F22403C2F20003C4F3031472
:1040B0001C5DE14041605468C4F302241C5D21FA98
:1040C00004F484605468C4F3C2241C5DE140C16000
:1040D00052685DF8044BC2F3813213441B7CB1FB80
:1040E000F3F10161704759685A68C1F38341D40301
:1040F00001F102010AD55B689A0307D44FF490538B
:10410000C0F27A0303FB01F10160C6E74FF41063CC
:10411000C0F23D0303FB01F10160BEE74FF48053A1
:10412000C4F202035A6919B922EA000058617047C3
:1041300010435861704700BF4FF48053C4F202032C
:104140009A6919B922EA0000986170471043986192
:10415000704700BF4FF48053C4F20203DA6919B903
:1041600022EA0000D86170471043D861704700BF51
:104170004FF48053C4F20203DA6819B922EA00004E
:10418000D86070471043D860704700BF4FF4805329
:10419000C4F202031A6919B922EA000018617047D3
:1041A00010431861704700BF4FF48863C4F2422384
:1041B000186070474C23C4F242231860704700BF58
:1041C00041F20703C4F20203187070474309012B40
:1041D0000ED0022B4FF48053C4F202030CBF1B6AB3
:1041E0005B6A00F01F0023FA00F000F00100704746
:1041F0004FF48053C4F202031B6800F01F0023FA3F
:1042000000F000F0010070474FF48053C4F2020345
:104210005A6A42F080725A62704700BF4FF480536E
:10422000C4F202039B6818420CBF002001207047B3
:1042300041F20A03C4F20203187070474FF420538E
:10424000C4F200031A8892B219B922EA0000188059
:1042500070471043188070474FF42053C4F2000396
:104260009A8892B242F010029A8070474FF420521E
:10427000C4F20002938823F010031B041B0C9380EC
:10428000704700BF4FF42053C4F20003198B988B82
:104290001A8B89B292B2914280B21DBF988B80B2C4
:1042A00040EA024040EA0140704700BF4FF420530B
:1042B000C4F200039A88010C92B242F0100280B25C
:1042C0009A80198398839A8822F010021204120CA3
:1042D0009A8070474FF42053C4F200039A88C0F3C9
:1042E000034192B242F0100280B29A801981988103
:1042F0009A8822F010021204120C9A80704700BFB4
:104300004FF42053C4F200039A88010C92B242F099
:10431000100280B29A80198498849A8822F0100240
:104320001204120C9A8070474FF42053C4F2000319
:10433000188A9B8A00F00F009BB243EA0040704746
:104340004FF42052C4F2000293889B06FCD57047BC
:104350004FF42051C4F200018B880A4623F0080371
:104360001B041B0C8B8093881907FCD5704700BF7A
:104370004FF42053C4F200039B8818420CBF002066
:10438000012070474FF42053C4F200039A8892B280
:1043900022EA0000988070474FF42053C4F20003D3
:1043A0009A881B8892B2034006D0024012F0FF0F99
:1043B0000CBF002001207047184670474FF420536F
:1043C000C4F200039A8892B222EA000098807047F3
:1043D0004FF4004340F2FF71C4F201030022C0F227
:1043E000C0011A605A609A60DA605A629A62DA62B0
:1043F0009963DA63704700BF30B4816844684FF452
:104400000043C268C4F201030C435D6801681443B1
:104410000269214325F4FD45007D25F07F050A430F
:104420002A4302435A6030BC704700BF0023037523
:10443000036043608360C36003617047A023C4F2DC
:1044400030231860704700BF4FF40043C4F20103EB
:10445000186070474FF40043C4F20103186800F07D
:10446000030070474FF40043C4F20103DA6B19B93B
:1044700022EA0000D86370471043D863704700BF3A
:1044800040F28C53C4F230231860704702684FF436
:104490000043C4F2010370B49A6081684268C66840
:1044A000DD6804690A43324325F4FF60224320F0AB
:1044B00007000243DA6070BC704700BF002303604E
:1044C00043608360C3600361704700BF4FF40043E3
:1044D000C4F201031869C0B2704700BF48F2140368
:1044E000C4F2010382B00344002201920193019BB4
:1044F000186802B0704700BF02684FF40043C4F26E
:10450000010330B45A6242689A62C16882680569E0
:1045100044690A43D86A2A43224320F0F700024341
:10452000DA6230BC704700BF00234FF0FF3280E8F2
:104530000C008360C3600361436170474FF4004324
:10454000C4F20103186B70474FF40043C4F2010337
:10455000D3F88000704700BF4FF40043C4F201035A
:10456000C3F88000704700BF4FF40043C4F201035A
:10457000986C70474FF4B463C4F2302318607047EE
:1045800040F2A453C4F23023186070474FF4B5636F
:10459000C4F230231860704740F2AC53C4F23023A9
:1045A000186070474FF4D673C4F230231860704718
:1045B0004FF4D873C4F230231860704700F0010044
:1045C0004FF4DA7380F00100C4F2302318607047B2
:1045D0004FF4DC73C4F23023186070474FF400438B
:1045E000C4F201035B6B18420CBF0020012070472E
:1045F0004FF40043C4F20103986370474FF4004343
:10460000C4F201035B6B18420CBF0020012070470D
:104610004FF40043C4F201039863704708B54FF4A8
:104620004053C4F20103984218D04FF46053C4F2CF
:10463000000398421ED04FF47053C4F20003984216
:1046400000D008BD4FF400400121FFF79FFDBDE8F9
:1046500008404FF400400021FFF798BD4FF4805010
:104660000121FFF785FDBDE808404FF4805000218F
:10467000FFF77EBD4FF480400121FFF787FDBDE8C5
:1046800008404FF480400021FFF780BDF0B40B8854
:104690004C888A881C43CB8814430A891C434B8965
:1046A0008F8922430588CE891A433A43324305F461
:1046B000415313439BB20380838B0A8A23F4006324
:1046C0001B041B0C8383F0BC02827047838BF0B504
:1046D00023F47B6323F00F031B0402221B0C838350
:1046E00002848B68868B934287B005460C46B6B22F
:1046F00008BFCA8828D08B8801A8002B14BF0227C6
:104700000127FFF7B9FCE2880199B2F5007F2CD0B0
:104710007B01B1FBF3F303EB8303A1685B00B3FB05
:10472000F1F305339BB24CF6CD41CCF6CC41A1FB65
:104730000303DB085908881E80B203F00103FD283B
:1047400094BF41EA03230223218860883143A7886C
:1047500041F400610143A0893943134301439BB2F3
:1047600089B22B84A98307B0F0BD090A01EB81014E
:10477000A0684B00B3FBF0F305339BB2D3E700BF57
:10478000002307220282038043808380C380038149
:1047900043818381C38170470023022282600380AA
:1047A00043808380C3808381704700BF038829B919
:1047B00023F040031B041B0C038070479BB243F0A3
:1047C00040030380704700BF838B29B923F48063C3
:1047D0001B041B0C838370479BB243F48063838369
:1047E000704700BF0123090903FA01F1838889B2E8
:1047F0009BB21AB923EA0101818070471943818075
:10480000704700BF83889BB21AB923EA01018180F7
:10481000704719438180704781817047808980B2D9
:10482000704700BF4FF6FF63994203880BBF23F424
:1048300080739BB21B0443F4807308BF1B0C03807E
:10484000704700BF838829B923F004031B041B0CA5
:10485000838070479BB243F004038380704700BF9E
:10486000038823F400631B041B0C038003889BB2A2
:1048700019430180704700BF03889BB243F4805303
:1048800003807047038829B923F400531B041B0CD1
:10489000038070479BB243F400530380704700BF0E
:1048A000012914BF008B808A80B27047008A80B2D1
:1048B000704700BF0388B1F5804F15BF23F48043D4
:1048C0009BB21B0443F4804318BF1B0C038070474A
:1048D000038919420CBF002001207047C94389B2E7
:1048E0000181704701F00F03012202FA03F310B4B3
:1048F00084880089A4B280B2184005D009098A4092
:1049000014420CBF002001205DF8044B704700BF2B
:1049100001F00F0101238B40DB439BB20381704701
:10492000F0B4048C4FF4305624F001042404240C19
:104930000484048B4FF4505524F0F3042404240C15
:104940002243078CC4F20106C4F2010542EA0313B4
:10495000A84218BFB0429CB2BFB21DD04FF48063D2
:10496000C4F20003984218BFB0F1804F14D04FF446
:1049700000624FF44063C4F20002C4F200039842A4
:1049800018BF904208D027F00A0747F001073943C3
:1049900004830184F0BC704727F0020747F0010749
:1049A000394304830184F0BC704700BFF0B4048C29
:1049B0004FF4305524F010042404240C0484048B98
:1049C0004FF4505624F440742405240D44EA022286
:1049D000078CC4F20105C4F2010642EA0333B04277
:1049E00018BFA8424FEA01129BB2BFB292B21DD0CB
:1049F0004FF48064C4F20004A04218BFB0F1804FAD
:104A000014D04FF400654FF44064C4F20005C4F2C2
:104A10000004A04218BFA84208D027F0A00747F022
:104A2000100739430383F0BC0184704727F020014D
:104A300041F0100111430383F0BC0184704700BFB3
:104A400008B54FF43053C4F20103984200F084805B
:104A5000B0F1804F00F08C804FF48063C4F200030B
:104A6000984200F08F804FF40063C4F20003984234
:104A700000F092804FF44063C4F20003984200F0CB
:104A800095804FF48053C4F20003984200F0988060
:104A90004FF4A053C4F20003984200F09B804FF4FF
:104AA0005053C4F20103984200F09E804FF49843A3
:104AB000C4F20103984200F0A3804FF4A043C4F273
:104AC0000103984200F0A8804FF4A843C4F2010308
:104AD000984200F0AD804FF4C053C4F200039842F6
:104AE00000F0B2804FF4E053C4F20003984200F0AB
:104AF000B5804FF40053C4F20003984200F0B88030
:104B00004FF48043C4F20103984200F0BD804FF49B
:104B10008843C4F20103984206D04FF49043C4F294
:104B2000010398420CD008BD4FF400300121FFF77B
:104B30001FFBBDE808404FF400300021FFF718BB11
:104B40004FF480200121FFF713FBBDE808404FF42C
:104B500080200021FFF70CBB4FF400600121FFF71C
:104B600007FBBDE808404FF400600021FFF700BBE1
:104B700001200146FFF70AFBBDE8084001200021A3
:104B8000FFF704BB02200121FFF700FBBDE808404E
:104B900002200021FFF7FABA04200121FFF7F6FAFC
:104BA000BDE8084004200021FFF7F0BA08200121E9
:104BB000FFF7ECFABDE8084008200021FFF7E6BA4D
:104BC00010200121FFF7E2FABDE808401020002183
:104BD000FFF7DCBA20200121FFF7D8FABDE8084032
:104BE00020200021FFF7D2BA4FF400500121FFF737
:104BF000BFFABDE808404FF400500021FFF7B8BAF3
:104C00004FF400200121FFF7B3FABDE808404FF44C
:104C100000200021FFF7ACBA4FF480100121FFF70C
:104C2000A7FABDE808404FF480100021FFF7A0BAB2
:104C30004FF400100121FFF79BFABDE808404FF444
:104C400000100021FFF794BA40200121FFF79EFADF
:104C5000BDE8084040200021FFF798BA80200121DC
:104C6000FFF794FABDE8084080200021FFF78EBAD4
:104C70004FF480700121FFF789FABDE808404FF436
:104C800080700021FFF782BA4FF480300121FFF7D6
:104C90006FFABDE808404FF480300021FFF768BA92
:104CA00070B44FF430524FF45054C4F201020388F0
:104CB000C4F20104904218BFA0429BB214BF00226C
:104CC000012208D04FF48064C4F20004A04218BF4F
:104CD000B0F1804F39D14FF68F754C881D4045EAB1
:104CE00004034FF4A0564FF48055C4F20005C4F2FB
:104CF0000006B04218BFA8421FBFCD884FF6FF4440
:104D00001C4044EA05038D880C8803808585048552
:104D10005AB94FF480424FF48843C4F20102C4F2FE
:104D20000103984218BF904205D170BC0B7A0386EC
:104D30000123838270474FF49043C4F201039842E9
:104D4000F3D070BC0123838270474FF400654FF4A9
:104D50004064C4F20005C4F20004A04218BFA84297
:104D6000BFD1B8E7038C2DE9F00123F001031B0448
:104D70001B0C0384028C0D898488B1F802C0038B5C
:104D80004CEA050C22F0020223F073034FF4305674
:104D90004FF4505512041B040F88C4F20106C4F2EC
:104DA0000105120C1FFA8CFC1B0CA84218BFB04264
:104DB0004CEA0202A4B243EA07030BD04FF4804648
:104DC0004FF48845C4F20106C4F20105A84218BF99
:104DD000B0421FD14FF6F775B1F80AC0B1F80E8096
:104DE0008E89154045EA0C0C4FF6FB728F8848EA15
:104DF00006064FF6FF450CEA0202B6B225403A43DA
:104E000046EA0504C98884800383BDE8F0018186F1
:104E1000028470474FF49045C4F20105A842F1D1D5
:104E2000D8E700BF038CF0B423F010031B041B0C65
:104E30000384028C848822F02002038B0D891204E3
:104E400023F4E643120C42EA0512B1F802C01B0437
:104E50000F884FF450564FF430551B0CC4F2010626
:104E6000C4F2010542EA0C1243EA0723A84218BF24
:104E7000B04292B2A4B29BB217D14F894FF67F765F
:104E800016404FF2FF35B1F80CC046EA0716254030
:104E90004FF6BF728F88CC89324045EA8C0542EAD2
:104EA000071245EA840492B2A4B2C98884800383BD
:104EB000F0BC018702847047038CF0B423F4807344
:104EC0001B041B0C0384028C0D8922F4007284885D
:104ED0001204838B120C42EA0522B1F802C023F0BF
:104EE00073034FF450564FF430551B040F88C4F22F
:104EF0000106C4F2010542EA0C221B0CA84218BFAD
:104F0000B04292B2A4B243EA070317D14F894FF2DD
:104F1000FF7616404CF6FF75B1F80CC046EA07263E
:104F200025404FF6FF328F88CC89324045EA0C1578
:104F300042EA072245EA041492B2A4B2C9888480E6
:104F40008383F0BC81870284704700BF038CF0B478
:104F500023F480531B041B0C0384028C0D8922F460
:104F600000521204120C848842EA0532838B4FF4FB
:104F700050564FF43055C4F20105C4F20106A84260
:104F800018BFB04223F4E6430F8808BF8E89B1F8FA
:104F900002C0A4B208BF4BF6FF754FEA034308BF37
:104FA00025404FEA1343C98808BF45EA861443EAFF
:104FB000072342EA0C3208BFA4B292B29BB28480AB
:104FC0008383F0BCA0F8401002847047F8B50B88CA
:104FD0000D460446002B59D0042B00F0B980082B55
:104FE000028C488863D022F480521204120C8F88FD
:104FF0000E892284A38B4FF4305123F440731B0598
:105000001B0D4FF4505243EA0723C4F20101278CD1
:10501000C4F2010243EA0633944218BF8C424FEABD
:1050200000369BB2BFB2B6B21BD04FF48062C4F25E
:105030000002944218BFB4F1804F12D04FF40061C7
:105040004FF44062C4F20001C4F20002944218BF5F
:105050008C4206D047F6FF5240F480503A4010434D
:1050600004E027F400573E4346F48050A383208495
:10507000A38BEA8823F440631B041B0CA383A38B3C
:105080009BB243EA02239BB2A383F8BDAA882B8973
:105090004988FFF745FC238BEA8823F00C031B04A7
:1050A0001B0C2383238B9BB213432383F8BD22F471
:1050B00080721204120C0E89B1F804C02284A38BF2
:1050C0004FF4305123F0F3031B041B0C4FF45052E8
:1050D00043EA0613278CC4F20101C4F201029BB219
:1050E0000602944218BF8C4243EA0C03BFB2B6B228
:1050F0001BD04FF48062C4F20002944218BFB4F196
:10510000804F12D04FF400614FF44062C4F20001AE
:10511000C4F20002944218BF8C4206D04FF2FF52F4
:1051200040F480703A40104304E027F400773E4397
:1051300046F48070A3832084A38BEA8823F00C03B9
:105140001B041B0CA383A38B9BB21343A383F8BD47
:10515000AA882B894988FFF729FC238BEA8823F446
:1051600040631B041B0C2383238B9BB243EA022363
:105170009BB22383F8BD00BFF8B50D46AB884988C4
:105180002A8800290CBF02270027012B14BF012603
:105190000226044612B31A462B89FFF707FC238B1D
:1051A000EA8823F440631B041B0C2383238B3946BA
:1051B0009BB243EA02239BB23246238320462B89CB
:1051C000FFF7AEFB238BEA8823F00C031B041B0CB8
:1051D0002383238B9BB213432383F8BD1A462B8969
:1051E000FFF79EFB238BEA8823F00C031B041B0CA8
:1051F0002383238B39469BB21343238332462B8967
:105200002046FFF7D3FB238BEA8823F440631B047B
:105210001B0C2383238B9BB243EA02239BB2238381
:10522000F8BD00BF10B40B884C888A882343CC8813
:1052300013430A8923434C8913438A892343134325
:105240009BB2A0F844305DF8044B704700234FF642
:10525000FF7282800380C38043800372704700BF67
:105260000023038043808380C38003814381838143
:10527000C381704700230122828003804380C38062
:10528000038170470023038043808380C3800381B0
:1052900043818381704700BF038829B923F001034C
:1052A0001B041B0C038070479BB243F00103038077
:1052B000704700BFB0F8443021B9C3F30E03A0F823
:1052C000443070476FEA43436FEA53439BB2A0F800
:1052D0004430704783899BB21AB923EA0101818166
:1052E0007047194381817047818270470A43A0F853
:1052F0004820704783899BB21AB923EA0101818152
:105300007047194381817047038923F007031B0409
:105310001B0C0381704700BF038923F070031B043B
:105320001B0C1943018103899BB243F007030381DE
:10533000704700BF38B50D46602D114604464FF04A
:1053400001020ED0FFF7ECFA238923F070031B044F
:105350001B0C2B43238123899BB243F0070323813A
:1053600038BDFFF723FBEFE710B4048942EA0323BB
:10537000E4B21C43A4B22143018103895DF8044BCC
:1053800023F077031B041B0C43F077030381704762
:1053900010B4048942EA0323E4B21C43A4B22143BB
:1053A000018103895DF8044B9BB243F48043038180
:1053B000704700BF10B40489E4B221430A4342EAB3
:1053C00003239CB204815DF8044B704701858282FF
:1053D000704700BF038823F070031B041B0C1943A4
:1053E00001807047038923F070031B041B0C1943D1
:1053F0000181704770B40589048B068C24F44074D5
:1054000026F0220624F003043604360C25F00705A6
:10541000240432432D04240C2D0C44F4807442EAFD
:105420000313294344F001049EB2018104830684DE
:1054300070BC7047038B23F070031B041B0C1943D3
:1054400001837047038B23F4E0431B041B0C43EAE6
:1054500001218BB203837047838B23F070031B04FD
:105460001B0C194381837047838B23F4E0431B0497
:105470001B0C43EA01218BB283837047038829B94F
:1054800023F080031B041B0C038070479BB243F086
:1054900080030380704700BF838829B923F0040389
:1054A0001B041B0C838070479BB243F00403838072
:1054B000704700BF838829B923F008031B041B0C25
:1054C000838070479BB243F008038380704700BF1E
:1054D000838829B923F001031B041B0C83807047C8
:1054E0009BB243F001038380704700BF038B23F01E
:1054F00008031B041B0C194301837047038B23F41F
:1055000000631B041B0C43EA01218BB20383704729
:10551000838B23F008031B041B0C19438183704702
:10552000838B23F400631B041B0C43EA01218BB221
:1055300083837047038B23F004031B041B0C194364
:1055400001837047038B23F480631B041B0C43EA25
:1055500001218BB203837047838B23F004031B0468
:105560001B0C194381837047838B23F480631B04D6
:105570001B0C43EA01218BB283837047038B23F01A
:1055800080031B041B0C194301837047038BC3F377
:105590000E0343EA01218BB203837047838B23F010
:1055A00080031B041B0C194381837047838BC3F357
:1055B0000E0343EA01218BB283837047038C23F0EF
:1055C00002031B041B0C194301847047038C23F056
:1055D00008031B041B0C194301847047038C23F040
:1055E00020031B041B0C43EA01118BB20384704798
:1055F000038C23F080031B041B0C43EA01118BB2C4
:1056000003847047038C23F400731B041B0C43EAD0
:1056100001218BB203847047038C23F400631B04C5
:105620001B0C43EA01218BB203847047038C23F4E3
:1056300000531B041B0C43EA01318BB203847047F7
:1056400001238B408A40018C89B221EA0303038441
:10565000018C0A4392B20284704700BF04238B403E
:105660008A40018C89B221EA03030384018C0A4336
:1056700092B20284704700BF30B401248C40058C84
:105680004FF6F773ADB225EA04040B4004841830DA
:105690006BB10439C1F34E010B58120223F4E043FD
:1056A0000B500B5892B21A430A5030BC704749084D
:1056B000435830BC23F07003435043581A434250C0
:1056C000704700BF038829B923F002031B041B0C99
:1056D000038070479BB243F002030380704700BF12
:1056E000038829B923F004031B041B0C03807047B3
:1056F0009BB243F004030380704700BF838829B93D
:1057000023F080031B041B0C838070479BB243F083
:1057100080038380704700BF038823F008031B04C5
:105720001B0C038003889BB219430180704700BFA4
:10573000838823F070031B041B0C838083889BB237
:1057400019438180704700BF038923F007031B04BE
:105750001B0C038103899BB219430181704700BF71
:10576000038923F080031B041B0C038103899BB274
:1057700019430181704700BF81847047818570475C
:10578000818670470187704781877047A0F8401075
:10579000704700BF038B23F00C031B041B0C038317
:1057A000038B9BB219430183704700BF038B23F423
:1057B00040631B041B0C0383038B9BB243EA012150
:1057C0008BB20383704700BF838B23F00C031B0451
:1057D0001B0C8383838B9BB219438183704700BF6B
:1057E000838B23F440631B041B0C8383838B9BB24A
:1057F00043EA01218BB28383704700BF038823F4FF
:1058000040731B041B0C038003889BB21943018067
:10581000704700BF808E80B2704700BF008F80B29B
:10582000704700BF808F80B2704700BFB0F8400063
:1058300080B27047808C80B2704700BF008D80B20C
:10584000704700BF038A19420CBF00200120704737
:10585000C94389B201827047038A828911420CBF11
:105860000020012019420CBF002000F00100704709
:10587000C94389B20182704708B54FF46053C4F23E
:105880000103984224D04FF48843C4F200039842A5
:105890002AD04FF49043C4F20003984230D04FF422
:1058A0009843C4F20003984236D04FF4A043C4F2A8
:1058B0000003984200D008BD4FF480100121FEF78C
:1058C00065FCBDE808404FF480100021FEF75EBC87
:1058D0004FF480400121FEF74BFCBDE808404FF437
:1058E00080400021FEF744BC4FF400300121FEF758
:1058F0004DFCBDE808404FF400300021FEF746BCE7
:105900004FF480200121FEF741FCBDE808404FF430
:1059100080200021FEF73ABC4FF400200121FEF761
:1059200035FCBDE808404FF400200021FEF72EBCF6
:10593000038ACA8823F440531B041B0C134330B55D
:105940000382838904468A88088923F4B0530D466C
:1059500023F00C03498902431B040A431B0C134325
:105960009BB2A381A38AAA8923F440731B041B0C56
:1059700087B01343A38201A8FEF77EFBA089049998
:10598000039B4FF46052C4F20102944208BF0B46DD
:1059900000B22A68002803EB8303B4BF52009200D0
:1059A00003EB8303B3FBF2F348F21F52C5F2EB1291
:1059B000A2FB03016425490901FB1533A0890901F4
:1059C00000B20028B5BFDB001B0132333233B5BF54
:1059D000A2FB0302A2FB0302C2F34212C2F3431270
:1059E000114389B2218107B030BD00BF00234FF4BD
:1059F00016510C22016042818380C3800381838120
:105A0000704700BF30B40A884D88038A8C882A43C7
:105A1000C98823F4706322431B041B0C0A431343FD
:105A20009BB2038230BC7047002303804380838095
:105A3000C3807047838929B923F400531B041B0CCE
:105A4000838170479BB243F400538381704700BF4A
:105A500001F01F0310B4C1F342110124A14204FA62
:105A600003F308BF0C3003D002290CBF10301430F0
:105A700004682AB924EA030303605DF8044B704705
:105A8000234303605DF8044B704700BF838A9BB2D9
:105A90001AB923EA01018182704719438182704754
:105AA000038A23F00F031B041B0C0382038A9BB29F
:105AB00019430182704700BF838923F400631B04EC
:105AC0001B0C838183899BB219438181704700BF7E
:105AD000838929B923F002031B041B0C83817047BF
